:03000000020800F3
:0C080000787FE4F6D8FD75810E020847F1
:0D09E4000208BF00010B00010A00010C0019
:0D09D600E4F50DF50EEF70031209B1AF0C42
:0109E30022F1
:1008E1001209C6907F00740DF030A211E4FF1209C5
:1008F100D68F0C120958120988D2AF80ECC2AFE52D
:1009010090540FF50BE50954F07C00250BF509EC2B
:100911003508F508E4FF1209D68F0C12095812099F
:030921008880C605
:10098800907F01E50CF090F500E4F0E50C75F00AB5
:100998008475F00A84E5F0C454F0FFE50C75F00A9C
:0909A80084EF25F0907F01F0229C
:1009B100850982850883E4F030B0FD8509828508C8
:0509C10083E0F50C22AB
:10095800E50C75F00AA4FFAEF07C007D3312088C1C
:100968008F0CE50C75F00A84C454F0FFE50C75F0A3
:100978000A84EF25F0907F01F0907F03E50BF022C9
:1009C600758911758C3C758AB0D2AFD2A9D28C22AA
:03000B00020924C3
:10092400C0E0C0D0758C3C758AB0050AE50AC39452
:1009340014401C750A00050B0509E5097002050839
:10094400E50B94084009750B007508BF750900D0C4
:04095400D0D0E032ED
:10080C000208E1E493A3F8E493A34003F68001F219
:10081C0008DFF48029E493A3F85407240CC8C333ED
:10082C00C4540F4420C8834004F456800146F6DFBC
:10083C00E4800B01020408102040809009E4E47E5F
:10084C00019360BCA3FF543F30E509541FFEE493B1
:10085C00A360010ECF54C025E060A840B8E493A378
:10086C00FAE493A3F8E493A3C8C582C8CAC583CAA3
:10087C00F0A3C8C582C8CAC583CADFE9DEE780BE5B
:0109F1000005
:10088C00BC000BBE0029EF8DF084FFADF022E4CC50
:10089C00F875F008EF2FFFEE33FEEC33FCEE9DEC19
:1008AC00984005FCEE9DFE0FD5F0E9E4CEFD22ED5F
:1008BC00F8F5F0EE8420D21CFEADF075F008EF2FA9
:1008CC00FFED33FD4007985006D5F0F222C398FD9A
:0508DC000FD5F0EA2237
:00000001FF
