:03000000020F5993
:0C0F5900787FE4F6D8FD75815A020FA0E5
:07141B00907F00740DF02228
:1013A100ED75F00A84C454F0FEED75F00A84EE2563
:0C13B100F0FE907F03EFF0907F01EEF063
:0113BD00220D
:07131F00021ABF00011C00CF
:1012FC00851B82851A83E4F030B0FD851B82851A2C
:10130C0083E075F00AA4FFAEF07C007D33120B0C69
:02131C008F1C24
:01131E0022AC
:1013BE00E590540FF51FE51B54F07C00251FF51B1F
:0613CE00EC351AF51A22AD
:05132600011F00C100E1
:1013D400758911758C3C758AB0D2AFD2A9D28C2292
:03000B000212C717
:0412C700C0E0C0D0F3
:1012CB00758C3C758AB0051DE51DB40207751D00B4
:1012DB00D200051EE51EB40713751E00051FE51F82
:0C12EB00B40809751F00751ABF751B00C0
:0512F700D0D0D0E03270
:0D13E400907F01E51CF090F5FF74FFF022F2
:0814130012140A1213F180FB10
:09140A0075590212141B0213D4DF
:0D13F1001214223001030213611213402276
:1013610030001CC28CC2A9C2001212FCAF59120D6E
:101371005A1213E4AD5AAF1F1213A1D2A9D28C2273
:1013400030001DC28CC2A91213BE1212FCAF59127A
:101350000D5A1213E4AD5AAF1F1213A1D2A9D28CA9
:01136000226A
:02132B00C101FE
:05142200A2A2920122CC
:10132D004C00003F19999A3E99999A3DCCCCCD012C
:02133D00590B4A
:021063008D08F6
:10106500E524C39403500B74212524F8A607052411
:1010750080088522218523228F23E524C3940350EC
:10108500028044C3E5229521FFE49400FE1213FE7D
:10109500D3EF95087480F86E985005852209802A4B
:1010A500C3E5229521FFE49400FE1213FED3EF95CC
:1010B500087480F86E98400FE5232522FFE433C3BA
:0C10C50013EF13F5098003852309AF0920
:0110D10022FC
:02128B008D08CC
:10128D00E527C39402500B74252527F8A6070527DB
:10129D0080058526258F26C3E5269525FFE4940038
:1012AD00FE1213FED3EF95087480F86E98500280ED
:0912BD0003852526852609AF09E9
:0112C6002205
:1011F100E52DC39D500B7428252DF8A607052D80DC
:1012010022E4FCE52D14FBECC39B501074292CF84F
:10121100E6FB74282CF8A603052D80E77427252DFD
:10122100F8A607E52DC39D50097428252DF8E6FE83
:0F123100800B7B007A007928121196AE07AF066A
:01124000228B
:1010D200E4FCE533C39D500B742E2533F8A60705B7
:1010E200338022E4FEE53314FBEEC39B5010742FD1
:1010F2002EF8E6FB742E2EF8A603053380E7742D36
:101102002533F8A607E533C39D500A742E2533F81C
:10111200E6F535801F0534E534B50518E4FDFEEE2D
:10112200C39D500A742E2EF8E62CFC0E80F1EC8D35
:06113200F084F535AF3535
:011138002294
:10113900E4FBE53BC39D500B7436253BF8A6070538
:101149003B8022E4FEE53B14FAEEC39A5010743753
:101159002EF8E6FA74362EF8A602053B80E77435B8
:10116900253BF8A607E53BC39D50097436253BF896
:10117900E6FC8016E4FEEEC39D500A74362EF8E6AE
:0C1189002BFB0E80F1EB8DF084FCAF041A
:011195002237
:020EC1008D089A
:100EC300E4F50AE541C39508500B743C2541F8A6A7
:100ED3000705418022E4FBE54114FEEBC39E50105D
:100EE300743D2BF8E6FE743C2BF8A606054180E71B
:100EF300743B2541F8A607E541C39508500A743CA5
:100F03002541F8E6F509804BE4FBEBC39508500F48
:100F1300743C2BF8E6FF740B2BF8A6070B80EB7BD6
:100F2300007A00790BAD08120CA07B01E50814FFD1
:100F3300EBC39F500C740B2BF8E6250AF50A0B80C4
:100F4300EBE50824FEFDE434FFFCAF0A7E00120B40
:050F53000C8F09AF093D
:010F58002276
:040E13008D088B09B2
:100E1700E4F50CE547C39508500B74422547F8A63F
:100E27000705478026E4F50BE54714FEE50BC39E4F
:100E370050127443250BF8E6FE7442250BF8A606FC
:100E4700054780E474412547F8A607E547C3950899
:100E5700500A74422547F8E6F50A805B85420D750E
:100E67000B01E50BC3950850427441250BF8E6FFCB
:100E77007442250BF8E6C39FFFE49400FE1213FEAD
:100E8700D3EF95097480F86E985004744280027409
:100E970041250BF8E6FF740D250BF8A607740D2501
:100EA7000BF8E6250CF50C050B80B7E50D250CF5C1
:090EB7000C8508F084F50AAF0A6D
:010EC000220F
:100FE500E54BC39402500B7448254BF8A607054BF7
:100FF50080058549488F49E54BC3940250097448DB
:10100500254BF8E6FE8054AB0CAA0BA90AA809E407
:10101500FFFE7D807C3F120803C004C005C006C0EA
:1010250007AC48E4120A08D003D002D001D0001260
:1010350008F8C004C005C006C007AC49E4120A0898
:10104500AB0CAA0BA90AA8091208F8D003D002D044
:0D10550001D000120807120A3CAE07AF06DA
:01106200226B
:080BD5008D088B098A0A890BC7
:100BDD00E551C39508500B744C2551F8A6070551E6
:100BED008026E4F510E55114FEE510C39E501274F5
:100BFD004D2510F8E6FE744C2510F8A6060551801B
:100C0D00E4744B2551F8A607E551C39402501574B1
:100C1D004C2551F8E6FCE4120A088F0F8E0E8D0D4F
:100C2D008C0C8063E4F510E510C395085059AB0F9B
:100C3D00AA0EA90DA80CC000C001C002C003AB09CB
:100C4D00AA0AA90B75F004E510A4F58285F08312AC
:100C5D000B6FC000C001C002C003744C2510F8E634
:100C6D00FCE4120A08D003D002D001D0001208F81B
:100C7D00D003D002D001D0001208078F0F8E0E8D39
:100C8D000D8C0C051080A0AF0FAE0EAD0DAC0C127F
:020C9D000A3C0F
:010C9F002232
:10138100E553C3940150048F528012EF6552600DF2
:0F1391000554E554D39D4005E4F5548F52AF52F7
:0113A000222A
:061241008F088D098B0AE5
:10124700E556C39509500885080B850B558030C3B3
:10125700E50B9557FFE49400FE1213FED3EF950AB2
:101267007480F86E98401885570BE50B6555600F2D
:101277000558E558D395094006E4F558850855AF54
:03128700558F5729
:01128A002241
:100D5A00EFB40C004003020E12900D6AF8282873B3
:100D6A00020D8E020D98020DA2020DAC020DB60202
:100D7A000DC0020DCA020DD6020DE9020DF9020ECE
:100D8A0003020E0F7D05AF1C1210638F5A227D0AD3
:100D9A00AF1C12128B8F5A227D03AF1C1211F18FD6
:100DAA005A227D05AF1C1210D28F5A227D05AF1C24
:100DBA001211398F5A227D05AF1C120EC18F5A2289
:100DCA007B057D03AF1C120E138F5A227433F50C68
:100DDA00F50BF50A75093FAF1C120FE58F5A227BF6
:100DEA00017A0079007D03AF1C120BD58F5A227D40
:100DFA0003AF1C1213818F5A227B057D03AF1C128D
:090E0A0012418F5A22851C5A2264
:080CA0008B108A1189128D13DB
:100CA800E4F514F515E51324FFFFE434FFFEC3E56E
:100CB800159FEE6480F8E5146480984003020D598E
:100CC800E4F516F517E51324FFFFE434FFFEC3EF40
:100CD8009515FFEE9514FEC3E5179FEE6480F8E5C1
:100CE80016648098505DAB10AA11A912E51724016B
:100CF800FFE435168F82F583120ABDFF85178285BA
:100D08001683120ABDFED39F402FEE751800F51901
:100D1800E5172401FFE435168F82F583120ABD8595
:100D28001782851683120AEAE5172401FDE43516B1
:100D38008D82F583E519120AEA0517E5177086050D
:100D48001680820515E5156003020CAD0514020C2A
:010D5800ADED
:010D59002277
:08119600AC058B088A09890AE7
:10119E00120CA0EC30E01C24FFFFE434FFC313FE5E
:1011AE00EF13AB08AA09A90AF5828E83120ABDF5C0
:1011BE000B802DECC3137E0024FFF582EE34FFF579
:1011CE0083AB08AA09A90A120ABDFFECC313F58264
:1011DE00758300120ABD2FFFE433C313EF13F50B13
:0211EE00AF0B45
:0111F00022DC
:10080000020AA8E86480F8E933E83360110460F074
:10081000ED33EC337009E8FCE9FDEAFEEBFF22045E
:1008200060DED3EB9FEA9EE99DE8C2E78CF0C2F759
:1008300095F0400CE8CCF8E9CDF9EACEFAEBCFFB25
:10084000120A7385D0F05804700320D5B3E8047001
:10085000075002B2D5020AB292D5EC0460F7E4CC9C
:10086000C0E0C398F8603B94186008400DD0E0FBEE
:10087000020A8AE4FBFAC9FC8028E830E406E4C9ED
:10088000FBE4CAFCE830E305E4C9CACBFCE8540742
:100890006010F8C3E913F9EA13FAEB13FBEC13FC4D
:1008A000D8F130F52FC3E49CFCEF9BFFEE9AFEEDF0
:1008B00099FDD0E0FBEF4E4D4C701222DB03020A93
:1008C000AFEC2CFCEF33FFEE33FEED33FDED30E704
:1008D000EB020A8AEF2BFFEE3AFEED39FDD0E0FB8A
:1008E00050130BBB0003020AB2ED13FDEE13FEEF33
:0808F00013FFEC13FC020A8A5D
:1008F800EC4D6011E8497017ED33EC3304600DE4FA
:10090800FCFFFEFD22E933E8330470F8020AA8125E
:100918000A7358046009E4CC24815006285009025F
:100928000AB2284003020AAFC0E0EB4A7044B9801B
:1009380006D0E0FB020A9EEF4E701CBD8008EBFF5C
:10094800EAFEE9FD80EBE98DF0A4FEE5F00209E19D
:10095800E9CDF9EAFEEBFFEF89F0A4FCE5F0CE89DA
:10096800F0A42EFFE435F0CD89F0A42DFEE435F097
:100978008067EF4E7005BD80D780C3EF8BF0A4ACC5
:10098800F0EE8BF0A42CFCE435F0F8EF8AF0A42C00
:10099800E5F038FCE433CB8DF0A42CFCE5F03BF813
:1009A800EE8AF0A42CFCE5F038F8E433CF89F0A403
:1009B8002CFCE5F038CF3400CE89F0A42FFFE5F009
:1009C8003EFEE433C98DF0A42EFEE5F039CD8AF061
:1009D800A42FFFE5F03EFEE43DFD33D0E0FB5007D9
:1009E8000BBB000F020AB2EC2CFCEF33FFEE33FE18
:0609F800ED33FD020A8A46
:1009FE0075F020800E75F010800575F0087D007E74
:100A0E00007F003392D530D503120B61EC334010CA
:100A1E00EF33FFEE33FEED33FDEC33FCD5F0ED227C
:0E0A2E00E5F0247EA2D513CC92E7CDCEFF22B8
:100A3C00EDD2E7CD33EC3392D524814006E4FFFEB2
:100A4C00FDFC22FCE4CFCECDCC24E0501174FF8011
:100A5C00EDC3CC13CCCD13CDCE13CECF13CF0470AE
:070A6C00F030D5DE020B6142
:100A7300E9D2E7C933E833F892D5EDD2E7CD33ECC9
:070A830033FC5002B2D52242
:100A8A00EC30E7100FBF000C0EBE00080DBD0004CD
:100A9A000BEB6014A2D5EB13FCED92E7FD2274FF79
:100AAA00FCFDFEFF22E480F8A2D574FF13FC7D80D2
:030ABA00E480EFE6
:100F6500021413E493A3F8E493A34003F68001F27B
:100F750008DFF48029E493A3F85407240CC8C3338D
:100F8500C4540F4420C8834004F456800146F6DF5C
:100F9500E4800B010204081020408090131FE47EBA
:100FA500019360BCA3FF543F30E509541FFEE49351
:100FB500A360010ECF54C025E060A840B8E493A318
:100FC500FAE493A3F8E493A3C8C582C8CAC583CA43
:100FD500F0A3C8C582C8CAC583CADFE9DEE780BEFB
:01133F0000AD
:100ABD00BB010CE58229F582E5833AF583E02250EE
:100ACD0006E92582F8E622BBFE06E92582F8E22238
:0D0ADD00E58229F582E5833AF583E4932252
:100AEA00F8BB010DE58229F582E5833AF583E8F042
:100AFA00225006E92582C8F622BBFE05E92582C8EE
:020B0A00F222D5
:100B0C00BC000BBE0029EF8DF084FFADF022E4CCCD
:100B1C00F875F008EF2FFFEE33FEEC33FCEE9DEC96
:100B2C00984005FCEE9DFE0FD5F0E9E4CEFD22EDDC
:100B3C00F8F5F0EE8420D21CFEADF075F008EF2F26
:100B4C00FFED33FD4007985006D5F0F222C398FD17
:050B5C000FD5F0EA22B4
:0E0B6100C3E49FFFE49EFEE49DFDE49CFC22A5
:100B6F00BB010DE58229F582E5833AF583020BACD3
:100B7F005007E92582F8020B9FBBFE07E92582F893
:100B8F00020BB8E58229F582E5833AF583020BC59E
:0C13FE00EE30E707C3E49FFFE49EFE22F0
:0D0B9F00E6FB08E6F908E6FA08E6CBF822C6
:0C0BAC00E0F8A3E0F9A3E0FAA3E0FB22CC
:0D0BB800E2FB08E2F908E2FA08E2CBF822BD
:100BC500E493F8740193F9740293FA740393FB2286
:00000001FF
